:100000000C9448000C9465000C9465000C946500F9
:100010000C9465000C9465000C9465000C946500CC
:100020000C9465000C9465000C9465000C946500BC
:100030000C9465000C9465000C9465000C946500AC
:100040000C9465000C9465000C9465000C9465009C
:100050000C9465004E414E494E495459494E46CD87
:10006000CCCC3D0AD7233C17B7D13877CC2B32956F
:1000700095E6241FB14F0A000020410000C842004D
:10008000401C4620BCBE4CCA1B0E5AAEC59D740017
:1000900011241FBECFE5D8E0DEBFCDBF10E0A0E643
:1000A000B0E0E4E9F8E102C005900D92A03AB10792
:1000B000D9F720E0A0EAB0E001C01D92A23AB20751
:1000C000E1F70E9493000C94480C0C94000082BB52
:1000D00082E085BB2FEF80E792E021508040904086
:1000E000E1F700C0000015BA089582BB83E085BB2C
:1000F0002FEF80E792E0215080409040E1F700C070
:10010000000081E085BB0895CF93DF93EC018881E7
:10011000882331F021960E94750089918111FBCFCF
:10012000DF91CF910895CF93DF93CDB7DEB7C05461
:10013000D1090FB6F894DEBF0FBECDBF8FEF84BBE1
:1001400081BB8FE087BB1ABA81E00E9467008EE016
:100150000E94670086E00E94670088E30E946700B3
:1001600084E80E94670080E690E00E94840083ECAF
:100170000E94670087E690E00E9484002FEF33ED35
:1001800080E3215030408040E1F700C0000081E072
:100190000E9467001EAA1DAA1AAE19AE212C312C8E
:1001A00021961FAE1EAE21971EAE1DAE812C912C46
:1001B00000E010E00F2EFEE07F2EF02D0F2EFDE070
:1001C0006F2EF02D0F2EFBE05F2EF02D5E0195E1DE
:1001D000A90EB11C9E01275D3F4F3CAB2BAB0F2EF0
:1001E000F7E04F2EF02D14C0812C912C00E010E090
:1001F0000FC031E039AF1AAE0BC081E08DAB1EAA43
:1002000089AF1AAE05C091E09DAB1EAA99AF1AAE98
:10021000C8990AC081E790E00E9484002FEF821AFB
:10022000920A31E03DAB1EAA78BAB79912C080E3BA
:100230000E94750078018FEFE81AF80AE1E0F0E01B
:10024000EC0FFD1FE00FF11F80E38083B79BFECF13
:100250003DC0B69912C081E30E94750078019FEFFE
:10026000E91AF90AE1E0F0E0EC0FFD1FE00FF11FE1
:1002700081E38083B69BFECF29C0B59912C082E38B
:100280000E94750078012FEFE21AF20AE1E0F0E037
:10029000EC0FFD1FE00FF11F82E38083B59BFECFC3
:1002A00015C0B49912C083E30E94750078013FEF36
:1002B000E31AF30AE1E0F0E0EC0FFD1FE00FF11F9D
:1002C00083E38083B49BFECF01C0780168BAB799FD
:1002D00012C084E30E94750067018FEFC81AD80A24
:1002E000E1E0F0E0EC0FFD1FEE0DFF1D84E38083E5
:1002F000B79BFECF3DC0B69912C085E30E94750042
:1003000067019FEFC91AD90AE1E0F0E0EC0FFD1F89
:10031000EE0DFF1D85E38083B69BFECF29C0B59906
:1003200012C086E30E94750067012FEFC21AD20A3D
:10033000E1E0F0E0EC0FFD1FEE0DFF1D86E3808392
:10034000B59BFECF15C0B49912C087E30E9475001B
:1003500067013FEFC31AD30AE1E0F0E0EC0FFD1FA5
:10036000EE0DFF1D87E38083B49BFECF01C06701C4
:1003700058BAB79911C088E30E94750086010F5FD3
:100380001F4FE1E0F0E0EC0FFD1FEC0DFD1D88E3D9
:100390008083B79BFECF78C0B69911C089E30E94D5
:1003A000750086010F5F1F4FE1E0F0E0EC0FFD1FCD
:1003B000EC0DFD1D89E38083B69BFECF65C0B5992A
:1003C0002FC08FE80E9467008BE20E947500C60173
:1003D00001961816190624F01C141D0484F017C089
:1003E000FE013196DE01559696012F5F3F4F2E0F8D
:1003F0003F1F81918D93E217F307D9F7EDCFFE01EF
:100400003196CE0EDF1E1192EC15FD05E1F7B59B7E
:10041000FECF80EC0E94670081E08DAF1EAE48C326
:10042000B49931C08FE80E9467008DE20E94750088
:10043000C60101961816190624F01C141D0484F038
:1004400017C0FE013196DE01559696012F5F3F4F92
:100450002E0F3F1F81918D93E217F307D9F7EDCF50
:10046000FE013196CE0EDF1E1192EC15FD05E1F76F
:10047000B49BFECF80EC0E94670091E09FAF219675
:100480001FAE219715C3860148BAB79930C08FE8CF
:100490000E94670088E50E947500A8014F5F5F4FCA
:1004A0001416150624F01016110674F015C0DE019E
:1004B0001196FE01759680E090E02D9121930196B2
:1004C00084179507D4F3EFCFFE0131960E0F1F1F4F
:1004D0001192E017F107E1F7B79BFECF80EC0E9485
:1004E000670022242394312C00E010E091CEB699CD
:1004F00031C08FE80E9467008FE20E947500C8013A
:1005000001961816190624F01016110684F017C06B
:10051000FE013196DE01559698012F5F3F4F2E0F59
:100520003F1F81918D93E217F307D9F7EDCFFE01BD
:1005300031960E0F1F1F1192E017F107E1F7B69BDE
:10054000FECF80EC0E94670021E029AF1AAE00E0E8
:1005500010E05ECEB5991AC081E00E94670085E781
:1005600090E00E9484003FEF84E39CE031508040A3
:100570009040E1F700C0000081E00E946700FE01AA
:1005800031961192AE16BF06E1F72ECEB49940CE49
:100590002DAD3EAD2130310509F056C08DA99EA983
:1005A000019749F1C5010E943F077C01CE010196E8
:1005B0000E943F078E0D9F1D9F938F932EE730E083
:1005C0003F932F939CA99F932BA92F930E9495074C
:1005D00087EC0E9467008DE30E947500CE0189962A
:1005E0000E9484000F900F900F900F900F900F902B
:1005F0001DAE1EAE61C2C5010E943F077C01CE0147
:1006000001960E943F078E199F099F938F938EE753
:1006100090E09F938F933CA93F938BA98F930E9467
:10062000950787EC0E9467008DE30E947500CE015C
:1006300089960E9484000F900F900F900F900F905A
:100640000F901DAA1EAA38C221962EAD3FAD21974C
:100650002130310509F05FC08DA99EA9019769F18C
:10066000C5010E943F077C01CE0101960E943F0711
:100670009701281B390BC9019F932F938EE790E0B8
:100680009F938F933CA93F938BA98F930E949507CB
:1006900087EC0E9467008DE30E947500CE01899669
:1006A0000E9484000F900F900F900F900F900F906A
:1006B0001FAE21961FAE219707C2C5010E943F07BA
:1006C0007C01CE0101960E943F07F194E194F1086C
:1006D0009701281B390BC9019F932F938EE790E058
:1006E0009F938F933CA93F938BA98F930E9495076B
:1006F00087EC0E9467008DE30E947500CE01899609
:100700000E9484000F900F900F900F900F900F9009
:100710001DAA1EAAD9C191E02916310409F0A4C06E
:100720002DA93EA921303105A9F1C5010E943F073D
:100730007C01CE0101960E943F079C01E29EC00110
:10074000E39E900DF29E900D11249F938F938EE760
:1007500090E09F938F933CA93F938BA98F930E9426
:10076000950787EC0E9467008DE30E947500CE011B
:1007700089960E9484000F900F900F900F900F9019
:100780000F9029AD3AAD2130310509F479C0212C03
:10079000312C3ECD31E08316910491F5C5010E94C4
:1007A0003F077C01CE0101960E943F07F194E1943E
:1007B000F1089C01E29EC001E39E900DF29E900D17
:1007C00011249F938F938EE790E09F938F933CA982
:1007D0003F938BA98F930E94950787EC0E94670037
:1007E0008DE30E947500CE0189960E9484000F90CF
:1007F0000F900F900F900F900F90212C312C6AC109
:1008000092E08916910409F065C1C5010E943F0775
:100810007C01CE0101960E943F079C01E29EC0012F
:10082000E39E900DF29E900D11249F938F938EE77F
:1008300090E09F938F933CA93F938BA98F930E9445
:10084000950787EC0E9467008DE30E947500CE013A
:1008500089960E9484000F900F900F900F900F9038
:100860000F90212C312C36C129AD3AAD2130310504
:1008700009F0CECC8DA99EA9019709F479C002C0D8
:10088000212C312CC5010E943B0769AF7AAF8BAF99
:100890009CAFCE0101960E943B076B017C0120E0DA
:1008A00030E0A9010E94A1061816C4F5A70196011F
:1008B00069AD7AAD8BAD9CAD0E94840520E030E03F
:1008C00048EC52E40E94A6060E94F605CB0164E6BD
:1008D00070E00E9413079F938F937F936F9321E89B
:1008E00030E03F932F931F9294E19F932CA92F9375
:1008F0003BA93F930E94650787EC0E9467008DE348
:100900000E947500CE0189960E9484000FB6F8946B
:10091000DEBF0FBECDBF19AE1AAE7ACC20E030E0FC
:10092000A901C701B6010E947F05811162CC81E057
:100930000E94670080E80E94670089E890E00E94BA
:10094000840084EC0E94670087E990E00E948400A4
:100950009FEF2EE934E2915020403040E1F700C093
:10096000000081E00E94670081E089AF1AAE50CCA0
:10097000C5010E943B076B017C01CE0101960E94DC
:100980003B076DAB7EAB8FAB98AF20E030E0A901A9
:100990000E94A10618160CF030CC91E08916910443
:1009A000E1F5C701B60190582DA93EA94FA958AD50
:1009B0000E94840520E030E048EC52E40E94A60644
:1009C0000E94F605CB0164E670E00E9413079F9336
:1009D0008F937F936F9321E830E03F932F931F9283
:1009E00094E19F932CA92F933BA93F930E94650705
:1009F00087EC0E9467008DE30E947500CE01899606
:100A00000E9484000FB6F894DEBF0FBECDBF1DAAB2
:100A10001EAA91E099AF1AAEFBCB22E08216910498
:100A200009F0F1CB2DA93EA94FA958ADC701B601D8
:100A30000E94840520E030E048EC52E40E94A606C3
:100A40000E94F605CB0164E670E00E9413079F93B5
:100A50008F937F936F9381E890E09F938F931F9282
:100A600034E13F938CA98F939BA99F930E946507C4
:100A700087EC0E9467008DE30E947500CE01899685
:100A80000E9484000FB6F894DEBF0FBECDBF1DAA32
:100A90001EAA31E039AF1AAEBBCB8FE80E946700C7
:100AA00088E50E94750041E050E000E010E0FFCCD6
:100AB00048BAB79BF2CF1EC021968EAD9FAD21974D
:100AC000019709F028CECCCD91E02916310409F028
:100AD000CBCE2BCE29AD3AAD2130310509F098CBE4
:100AE00047CF8FE80E9467008FE20E94750000E008
:100AF00010E00ECDB69BF5CF00E010E02BCD0E94AC
:100B00002C0608F481E008950E9498050C9467066D
:100B10000E94600658F00E94590640F029F45F3F99
:100B200029F00C94500651110C949B060C94560617
:100B30000E94780668F39923B1F3552391F3951B2E
:100B4000550BBB27AA2762177307840738F09F5FEE
:100B50005F4F220F331F441FAA1FA9F335D00E2E5B
:100B60003AF0E0E832D091505040E695001CCAF7C8
:100B70002BD0FE2F29D0660F771F881FBB1F26178B
:100B800037074807AB07B0E809F0BB0B802DBF0162
:100B9000FF2793585F4F3AF09E3F510578F00C9431
:100BA00050060C949B065F3FE4F3983ED4F3869581
:100BB00077956795B795F7959F5FC9F7880F911D52
:100BC0009695879597F90895E1E0660F771F881F3E
:100BD000BB1F621773078407BA0720F0621B730BF1
:100BE000840BBA0BEE1F88F7E09508950E94FD056F
:100BF0006894B1110C949B0608950E94800688F0B9
:100C00009F5798F0B92F9927B751B0F0E1F0660FD0
:100C1000771F881F991F1AF0BA95C9F714C0B13011
:100C200091F00E949A06B1E008950C949A06672FFD
:100C3000782F8827B85F39F0B93FCCF38695779540
:100C40006795B395D9F73EF4909580957095619529
:100C50007F4F8F4F9F4F0895990F0008550FAA0B94
:100C6000E0E8FEEF16161706E807F907C0F01216BF
:100C70001306E407F50798F0621B730B840B950BC2
:100C800039F40A2661F0232B242B252B21F4089517
:100C90000A2609F4A140A6958FEF811D811D0895B4
:100CA00097F99F6780E870E060E008959FEF80EC1F
:100CB000089500240A9416161706180609060895C2
:100CC00000240A9412161306140605060895092E28
:100CD0000394000C11F4882352F0BB0F40F4BF2B97
:100CE00011F460FF04C06F5F7F4F8F4F9F4F0895D7
:100CF00057FD9058440F551F59F05F3F71F04795CD
:100D0000880F97FB991F61F09F3F79F087950895B1
:100D1000121613061406551FF2CF4695F1DF08C0D0
:100D2000161617061806991FF1CF869571056105ED
:100D300008940895E894BB2766277727CB0197F995
:100D400008950E942C0608F48FEF08950E94B906BA
:100D50000C9467060E94590638F00E94600620F045
:100D6000952311F00C9450060C94560611240C9403
:100D70009B060E94780670F3959FC1F3950F50E093
:100D8000551F629FF001729FBB27F00DB11D639F3D
:100D9000AA27F00DB11DAA1F649F6627B00DA11DE3
:100DA000661F829F2227B00DA11D621F739FB00D89
:100DB000A11D621F839FA00D611D221F749F3327F9
:100DC000A00D611D231F849F600D211D822F762F92
:100DD0006A2F11249F5750409AF0F1F088234AF06F
:100DE000EE0FFF1FBB1F661F771F881F91505040DB
:100DF000A9F79E3F510580F00C9450060C949B0679
:100E00005F3FE4F3983ED4F3869577956795B79561
:100E1000F795E7959F5FC1F7FE2B880F911D96957B
:100E2000879597F9089597FB072E16F4009407D03D
:100E300077FD09D00E94270707FC05D03EF4909566
:100E400081959F4F0895709561957F4F0895AA1BD6
:100E5000BB1B51E107C0AA1FBB1FA617B70710F0A5
:100E6000A61BB70B881F991F5A95A9F780959095D7
:100E7000BC01CD010895662777270C949809FC01E1
:100E800088279927E89421912032E9F3293010F03E
:100E90002E30C8F32B3241F02D3239F4689404C05F
:100EA0000E945D07820F911D219120532A30C0F3CB
:100EB0001EF4909581959F4F08957AE0979F902D0D
:100EC000879F802D910D11240895AEE0B0E0EBE6F0
:100ED000F7E00C94100C0D891E898F89988D26E0FF
:100EE0002C831A83098397FF02C080E090E8019762
:100EF0009E838D83AE01455E5F4F698D7A8DCE01F5
:100F000001960E94B7074D815E8157FD0AC02F816F
:100F10003885421753070CF49A01F801E20FF31FCA
:100F200010822E96E4E00C942C0CAEE0B0E0EBE9DD
:100F3000F7E00C94100C0D891E8986E08C831A83CF
:100F400009838FEF9FE79E838D83AE01475E5F4FDE
:100F50006F89788DCE0101960E94B707EF81F885E1
:100F6000E00FF11F10822E96E4E00C942C0CABE005
:100F7000B0E0EDEBF7E00C94020C6C017B018A0110
:100F8000FC0117821682838181FFCCC1CE010196BC
:100F90003C01F6019381F70193FD859193FF8191C7
:100FA0007F01882309F4BAC1853239F493FD859114
:100FB00093FF81917F01853229F4B60190E00E9470
:100FC0001D0BE7CF912C212C312CFFE1F315D8F02C
:100FD0008B3279F038F4803279F08332A1F4232D0A
:100FE00020611DC08D3261F0803369F4232D2160B2
:100FF00016C0832D8260382EE32DE4603E2E2AC079
:10100000F32DF8601DC037FC2DC020ED280F2A30CD
:1010100040F08E32B9F436FC81C1232D2064322E8B
:1010200019C036FE06C08AE0989E200D1124922E2B
:1010300011C0EAE02E9E200D1124222EF32DF06225
:101040003F2E08C08C3621F4832D8068382E02C0D4
:10105000883641F4F70193FD859193FF81917F01DB
:101060008111B3CF982F9F7D9554933028F40C5F56
:101070001F4F9FE399830DC0833631F0833771F0A2
:10108000833509F059C021C0F801808189830E5F42
:101090001F4F88248394912C530113C02801F2E040
:1010A0004F0E511CF801A080B18036FE03C0692D9F
:1010B00070E002C06FEF7FEFC5010E94120B4C0180
:1010C0008201F32DFF773F2E16C0280122E0420E49
:1010D000511CF801A080B18036FE03C0692D70E07C
:1010E00002C06FEF7FEFC5010E94070B4C01F32D8B
:1010F000F0683F2E820133FC1BC0822D90E08816E1
:101100009906B0F4B60180E290E00E941D0B2A948B
:10111000F4CFF50137FC859137FE81915F01B6016F
:1011200090E00E941D0B21102A9421E0821A910860
:101130008114910471F7E8C0843611F0893641F5C5
:10114000F80137FE07C060817181828193810C5F55
:101150001F4F08C060817181072E000C880B990B0E
:101160000E5F1F4FF32DFF763F2E97FF09C090951E
:101170008095709561957F4F8F4F9F4FF0683F2E00
:101180002AE030E0A3010E94590B882E861845C042
:10119000853731F4232D2F7EB22E2AE030E025C092
:1011A000932D997FB92E8F36C1F018F4883579F0D8
:1011B000B5C0803719F0883721F0B0C0E92FE06161
:1011C000BE2EB4FE0DC0FB2DF460BF2E09C034FE50
:1011D0000AC0292F2660B22E06C028E030E005C0E4
:1011E00020E130E002C020E132E0F801B7FE07C0A4
:1011F00060817181828193810C5F1F4F06C0608185
:10120000718180E090E00E5F1F4FA3010E94590B97
:10121000882E8618FB2DFF773F2E36FE0DC0232D1E
:101220002E7FA22E891458F434FE0BC032FC09C064
:10123000832D8E7EA82E05C0B82CA32C03C0B82CFD
:1012400001C0B92CA4FE0FC0FE01E80DF11D808184
:10125000803321F49A2D997EA92E09C0A2FE06C0E2
:10126000B394B39404C08A2D867809F0B394A3FC98
:1012700011C0A0FE06C0B21488F4280C922C9B1852
:101280000EC0B21460F4B60180E290E00E941D0B23
:10129000B394F7CFB21418F42B1802C0982C212C59
:1012A000A4FE10C0B60180E390E00E941D0BA2FED8
:1012B00017C0A1FC03C088E790E002C088E590E079
:1012C000B6010CC08A2D867859F0A1FE02C08BE2CF
:1012D00001C080E2A7FC8DE2B60190E00E941D0BE8
:1012E000891438F4B60180E390E00E941D0B9A94B3
:1012F000F7CF8A94F301E80DF11D8081B60190E0EB
:101300000E941D0B8110F5CF222009F442CEB601B8
:1013100080E290E00E941D0B2A94F6CFF6018681B0
:10132000978102C08FEF9FEF2B96E2E10C941E0C89
:10133000A0E0B0E0EEE9F9E00C94080CEC016B01E0
:101340006115710519F0FB01918380837E01FFEF28
:10135000EF1AFF0A0881802F90E00E94E60A892B8D
:1013600011F0E701F3CF0D3239F47E0182E0E80E8F
:10137000F11C098111E008C00B3229F47E0192E0D2
:10138000E90EF11C098110E0E701219743E050E0EC
:101390006CE570E0CE010E94EF0A892BC1F4239620
:1013A00045E050E067E570E0CE010E94EF0A892B2E
:1013B00009F42596C114D10419F0F601D183C08334
:1013C0001111F6C060E070E080E89FE7FAC043E0EA
:1013D00050E064E570E0CE010E94EF0A892B59F4D9
:1013E000C114D10409F4E9C0F2E0EF0EF11CF601DA
:1013F000F182E082E2C020E030E0A901C0E0D0E06C
:10140000F70180EDA82EA00E89E08A1530F1912F0A
:101410009260B92E812F887012FF04C0811124C000
:10142000219622C081112197A5E0B0E00E94F70B20
:10143000DC01CB01880F991FAA1FBB1F9C01AD01C6
:101440002A0D311D411D511D283989E938074807EA
:1014500089E1580748F0166006C09EEFA9120AC03D
:1014600013FD40C01860B12E8FEFE81AF80A008112
:101470001B2DC6CF802F8F7D8534A1F580818D32C5
:1014800011F4106106C08B3221F0319661E070E0FA
:1014900004C08181329662E070E080538A3018F097
:1014A000E61BF70B1FC060E070E060389CE0790736
:1014B0005CF4DB01AA0FBB1FAA0FBB1F6A0F7B1FC7
:1014C000660F771F680F711D3196DF0111978C91A0
:1014D00080538A3050F314FF03C0719561957109F0
:1014E000C60FD71F11FF08C0C114D10429F0CF01C6
:1014F0000197F60191838083CA01B9010E94B70B5D
:10150000212F2370233019F04B015C0106C04B01E1
:101510005C01B7FAB094B7F8B09420E030E0A901CC
:10152000C501B4010E947F05882309F43EC0D7FF9E
:1015300006C0D195C195D10903E710E002C00BE8C0
:1015400010E06801F8E1CF1AD10890E2E92EF12C01
:10155000CE15DF0574F0F801259135914591549130
:10156000C501B4010E94A6064B015C01CE19DF093A
:10157000EFCF04501109F594E7940C151D0541F7C0
:101580008A2D880F8B2D881F8F3F49F020E030E097
:10159000A901C501B4010E947F05811106C082E244
:1015A00090E09093A1008093A000C501B40109C010
:1015B00060E070E080E89FEF04C060E070E080ECE5
:1015C0009FE7CDB7DEB7ECE00C94240C91110C949E
:1015D000F40B803219F089508550C8F70895FB014B
:1015E000DC014150504088F08D9181341CF08B35E6
:1015F0000CF4805E659161341CF06B350CF4605E18
:10160000861B611171F3990B0895881BFCCFFC01B7
:101610000590615070400110D8F7809590958E0F1D
:101620009F1F0895FC016150704001900110D8F790
:10163000809590958E0F9F1F08950F931F93CF93C2
:10164000DF93FB01238121FD03C08FEF9FEF2CC0AF
:1016500022FF16C0468157812481358142175307E6
:1016600044F4A081B1819D012F5F3F4F31832083DE
:101670008C93268137812F5F3F4F3783268314C099
:101680008B01EC01FB010084F185E02D0995892B8C
:10169000E1F6D80116968D919C91179701961796B1
:1016A0009C938E931697CE01DF91CF911F910F914E
:1016B0000895FA01AA27283051F1203181F1E894E8
:1016C0006F936E7F6E5F7F4F8F4F9F4FAF4FB1E035
:1016D0003ED0B4E03CD0670F781F891F9A1FA11D30
:1016E000680F791F8A1F911DA11D6A0F711D811D31
:1016F000911DA11D20D009F468943F912AE0269FF6
:1017000011243019305D3193DEF6CF010895462F54
:101710004770405D4193B3E00FD0C9F7F6CF462F35
:101720004F70405D4A3318F0495D31FD405241939E
:1017300002D0A9F7EACFB4E0A6959795879577955B
:101740006795BA95C9F700976105710508959B01E2
:10175000AC010A2E06945795479537952795BA956B
:10176000C9F7620F731F841F951FA01D0895E89489
:1017700009C097FB3EF490958095709561957F4FD9
:101780008F4F9F4F9923A9F0F92F96E9BB27939587
:10179000F695879577956795B795F111F8CFFAF497
:1017A000BB0F11F460FF1BC06F5F7F4F8F4F9F4FC8
:1017B00016C0882311F096E911C0772321F09EE826
:1017C000872F762F05C0662371F096E8862F70E08C
:1017D00060E02AF09A95660F771F881FDAF7880F66
:1017E0009695879597F908959927882708950E94D7
:1017F000390CA59F900DB49F900DA49F800D911D55
:10180000112408952F923F924F925F926F927F9290
:101810008F929F92AF92BF92CF92DF92EF92FF9200
:101820000F931F93CF93DF93CDB7DEB7CA1BDB0BAC
:101830000FB6F894DEBF0FBECDBF09942A88398851
:1018400048885F846E847D848C849B84AA84B98458
:10185000C884DF80EE80FD800C811B81AA81B98164
:10186000CE0FD11D0FB6F894DEBF0FBECDBFED0178
:101870000895A29FB001B39FC001A39F700D811D69
:101880001124911DB29F700D811D1124911D089589
:04189000F894FFCFFA
:1018940041544D45474100434143554C41544F52F7
:1018A40000282D2900434C454152494E47002564E8
:1018B4000025642E253032640056414C5545204E97
:1018C4004F542042452000434F5252454354000098
:00000001FF
